:020000040000FA
:100000000C945D000C9485000C9485000C94850084
:100010000C9485000C9485000C9485000C9485004C
:100020000C9485000C9485000C9485000C9485003C
:100030000C9485000C9485000C9485000C9485002C
:100040000C9492010C9485000C9485000C9485000E
:100050000C9485000C9485000C9485000C9485000C
:100060000C9485000C94850000000008000201003B
:100070000003040700000000000000000000000072
:10008000250028002B0000000000240027002A0083
:10009000040404040404040402020202020203032E
:1000A0000303030301020408102040800102040836
:1000B0001020010204081020280411241FBECFEFD5
:1000C000D8E0DEBFCDBF11E0A0E0B1E0EAE3F9E0A7
:1000D00002C005900D92AE35B107D9F721E0AEE52B
:1000E000B1E001C01D92A239B207E1F710E0CDE501
:1000F000D0E004C02197FE010E949504CC35D107C1
:10010000C9F70E94DC010C949B040C94000090E061
:10011000FC01EC55FF4F249180579F4FFC018491C7
:10012000882399F090E0880F991FFC01EA57FF4F50
:10013000A591B491FC01E458FF4F859194918FB73C
:10014000F894EC91E22BEC938FBF089590E0FC01C2
:10015000E859FF4F2491FC01EC55FF4F3491FC010D
:10016000E057FF4FE491EE23C9F0222339F023300A
:1001700001F1A8F4213019F1223029F1F0E0EE0F5D
:10018000FF1FE458FF4FA591B4918FB7F894EC91FD
:10019000611126C030953E233C938FBF08952730D0
:1001A000A9F02830C9F0243049F7809180008F7D74
:1001B00003C0809180008F7780938000DFCF84B56B
:1001C0008F7784BDDBCF84B58F7DFBCF8091B0006E
:1001D0008F778093B000D2CF8091B0008F7DF9CF20
:1001E0003E2BDACFCF93DF93C82FD0E080917F01F1
:1001F000D81758F4ED2FF0E0E959FE4F60916A01ED
:1002000087850E94A600DF5FF1CFEC2FF0E0E9596F
:10021000FE4F609168018781DF91CF910C94A60019
:10022000CF93DF93C82FD0E080917E01D81758F488
:10023000ED2FF0E0E959FE4F6091680187810E943F
:10024000A600DF5FF1CFEC2FF0E0E959FE4F60919F
:100250006A018785DF91CF910C94A6001F93CF93FD
:10026000DF93C82FD0E0C959DE4F609167018F81BD
:100270000E94A60010E06A9680917F011817A8F4EA
:10028000E12FF0E0888190E0012E02C095958795DE
:100290000A94E2F780FF07C0E959FE4F60916901B7
:1002A00087850E94A6001F5FE7CFDF91CF911F9146
:1002B00008950F931F93CF93C82FE82FF0E0E959CB
:1002C000FE4F6091690187850E94A60001E010E061
:1002D00002C0000F111FCA95E2F7C0E080917E01B5
:1002E000C81788F4EC2FF0E0E959FE4F828D90E0BA
:1002F00080239123892B29F06091670187810E94D7
:10030000A600CF5FEBCFCF911F910F910895823060
:10031000910538F0880F991F880F991F059701974D
:10032000F1F708951F920F920FB60F9211242F9399
:100330003F938F939F93AF93BF938091630190916D
:100340006401A0916501B09166013091620123E0E2
:10035000230F2D3758F50196A11DB11D2093620181
:100360008093630190936401A0936501B09366014B
:1003700080915E0190915F01A0916001B091610157
:100380000196A11DB11D80935E0190935F01A09322
:100390006001B0936101BF91AF919F918F913F91A7
:1003A0002F910F900FBE0F901F90189526E8230FE6
:1003B0000296A11DB11DD2CFCF93DF93CDB7DEB78B
:1003C00062970FB6F894DEBF0FBECDBF789484B5A8
:1003D000826084BD84B5816084BD85B5826085BD41
:1003E00085B5816085BD80916E00816080936E00CF
:1003F00010928100809181008260809381008091C1
:100400008100816080938100809180008160809371
:1004100080008091B10084608093B1008091B00031
:1004200081608093B00080917A00846080937A002C
:1004300080917A00826080937A0080917A00816056
:1004400080937A0080917A00806880937A0010927D
:10045000C1008091000190910101A0910201B09131
:10046000030189879A87AB87BC8788E0E4E0F1E0E5
:100470008E010F5F1F4FD80101900D928A95E1F711
:1004800010926B0181E080936C0110926D0194E0F9
:1004900090937E0198E090937F0110926701809382
:1004A00069018093680110926A01F801A6E7B1E042
:1004B000CE01099621912D93E817F907D9F789857F
:1004C00080936E018A8580936F018B858093700184
:1004D0008C8580937101F12C80917E01F81698F43F
:1004E0008F2D90E09C0129593E4F6901D901179643
:1004F0008C910E94870060916801F60187810E94BB
:10050000A600F394E9CFF12C80917F01F81650F00A
:1005100090917E01E1E8F1E080E09817B1F011924E
:100520008F5FFBCF8F2D90E09C0129593E4F6901D1
:10053000D9011F968C910E94870060916A01F60193
:1005400087850E94A600F394DFCF80E00E9410010F
:1005500080E00E94F20088E097E090938E01809303
:100560008D011092900110928F0110929101CC2474
:10057000C394D0907E018D2C912C5401AA0CBB1CED
:10058000AA0CBB1CF501EB5CFE4F80819181A2811E
:10059000B3810397A105B105BCF4F8018E2F801B30
:1005A0008D1508F465C081E891E0D8012A2F201B41
:1005B0002D1508F079C0ED91F0E0E45FFE4F208149
:1005C000FC012193CF01F2CFD501AF5CBE4F8D91DD
:1005D0009D910D90BC91A02D21E030E040E050E0D5
:1005E000281B390B4A0B5B0BDA01C9010397A105E4
:1005F000B1059CF67F0118012CEFA4012403C00172
:10060000259F900D11249A8B898B52E0452E512CF9
:10061000612C712C45E3E41641E0F40661F154E0ED
:10062000E51AF108E989FA89EE0DFF1DEA0DFB1DB7
:1006300080819181A281B3818D879E87AF87B88B9E
:10064000C301B2012D853E854F8558890E943A0429
:10065000D1012D931D01A22FB0E02D853E854F8540
:1006600058890E945904461A570A680A790AD2CF53
:1006700035E2319393CF80916D01811194CFB1E038
:100680008B1A9108E82FF0E0E815F9050CF08BCFF4
:10069000E00FF11F9081911104C024E220838F5F4D
:1006A000F1CF9A30E0F77FCF80916C01811196C035
:1006B0003FB7F89480915E0190915F01A091600135
:1006C000B091610126B5A89B05C02F3F19F0019696
:1006D000A11DB11D3FBFBA2FA92F982F8827820FC8
:1006E000911DA11DB11D42E0880F991FAA1FBB1FBC
:1006F0004A95D1F7209191014091890150918A0149
:1007000060918B0170918C014C015D01841A950AF6
:10071000A60AB70A40918F0150919001211104C09F
:1007200040918D0150918E01052E000C660B770BC8
:1007300084169506A606B70664F180938901909306
:100740008A01A0938B01B0938C01809180019091DC
:100750006B01911126C0222391F01092910180919A
:1007600080018F5F8093800190917F01891710F045
:1007700010928001809180010E9459010AC00E945C
:10078000100180918F0190919001892B41F3C092CB
:10079000910120E030E0232B09F4EBCE0E94000011
:1007A000E8CE222391F010929101809180018F5F19
:1007B0008093800190917E01891710F01092800142
:1007C000809180010E942E01E4CF0E94F20080916E
:1007D0008F0190919001892B41F3D9CF80916B01CA
:1007E000F12C81111AC080917F01F81690F68F2D9F
:1007F0000E94590180918D0190918E010E94870184
:100800008F2D0E94100180918F019091900100978F
:1008100011F00E948701F394E6CF80917E01F816D3
:1008200008F0B7CF8F2D0E942E0180918D019091FD
:100830008E010E9487018F2D0E94F20080918F010E
:1008400090919001009711F00E948701F394E5CFF9
:10085000E7E6F1E080ED97E097A386A311A610A646
:1008600012A6178A118E12A213A214A215A2148224
:1008700015820895052E97FB1EF400940E945104E2
:1008800057FD07D00E94640407FC03D04EF40C947B
:10089000510450954095309521953F4F4F4F5F4FF4
:1008A000089590958095709561957F4F8F4F9F4FDC
:1008B00008950E948604A59F900DB49F900DA49F5B
:1008C000800D911D11240895A1E21A2EAA1BBB1BB5
:1008D000FD010DC0AA1FBB1FEE1FFF1FA217B3070C
:1008E000E407F50720F0A21BB30BE40BF50B661F22
:1008F000771F881F991F1A9469F7609570958095E6
:1009000090959B01AC01BD01CF010895A29FB0015C
:10091000B39FC001A39F700D811D1124911DB29F33
:10092000700D811D1124911D0895EE0FFF1F05907C
:10093000F491E02D0994F894FFCF02030405060713
:1009400008090A0B0C0D3F065B4F666D7D077F6F34
:10095000777C395E79713D76300E763800543F737E
:1009600067506D783E3E00766E5B00408063080104
:100970000000000A00000064000000E8030000100E
:10098000270000A086010040420F008096980000DA
:08099000E1F50500CA9A3B00E5
:107E0000112484B714BE81FFF0D085E080938100F7
:107E100082E08093C00088E18093C10086E0809377
:107E2000C20080E18093C4008EE0C9D0259A86E02C
:107E300020E33CEF91E0309385002093840096BBD3
:107E4000B09BFECF1D9AA8958150A9F7CC24DD24C4
:107E500088248394B5E0AB2EA1E19A2EF3E0BF2EE7
:107E6000A2D0813461F49FD0082FAFD0023811F036
:107E7000013811F484E001C083E08DD089C08234E0
:107E800011F484E103C0853419F485E0A6D080C0E4
:107E9000853579F488D0E82EFF2485D0082F10E0AE
:107EA000102F00270E291F29000F111F8ED06801E7
:107EB0006FC0863521F484E090D080E0DECF843638
:107EC00009F040C070D06FD0082F6DD080E0C81688
:107ED00080E7D80618F4F601B7BEE895C0E0D1E017
:107EE00062D089930C17E1F7F0E0CF16F0E7DF06D8
:107EF00018F0F601B7BEE89568D007B600FCFDCFD4
:107F0000A601A0E0B1E02C9130E011968C91119780
:107F100090E0982F8827822B932B1296FA010C0160
:107F200087BEE89511244E5F5F4FF1E0A038BF0790
:107F300051F7F601A7BEE89507B600FCFDCF97BE46
:107F4000E89526C08437B1F42ED02DD0F82E2BD052
:107F50003CD0F601EF2C8F010F5F1F4F84911BD097
:107F6000EA94F801C1F70894C11CD11CFA94CF0C13
:107F7000D11C0EC0853739F428D08EE10CD085E9AC
:107F80000AD08FE07ACF813511F488E018D01DD067
:107F900080E101D065CF982F8091C00085FFFCCF94
:107FA0009093C60008958091C00087FFFCCF809118
:107FB000C00084FD01C0A8958091C6000895E0E648
:107FC000F0E098E1908380830895EDDF803219F02E
:107FD00088E0F5DFFFCF84E1DECF1F93182FE3DFCA
:107FE0001150E9F7F2DF1F91089580E0E8DFEE27F6
:047FF000FF270994CA
:027FFE00040479
:00000001FF
