:100000000C945D000C9485000C9485000C94850084
:100010000C9485000C9485000C9485000C9485004C
:100020000C9485000C9485000C9485000C9485003C
:100030000C9485000C9485000C9485000C9485002C
:100040000C9492010C9485000C9485000C9485000E
:100050000C9485000C9485000C9485000C9485000C
:100060000C9485000C94850000000008000201003B
:100070000003040700000000000000000000000072
:10008000250028002B0000000000240027002A0083
:10009000040404040404040402020202020203032E
:1000A0000303030301020408102040800102040836
:1000B0001020010204081020760411241FBECFEF87
:1000C000D8E0DEBFCDBF11E0A0E0B1E0E6EDF9E0A1
:1000D00002C005900D92AC35B107D9F721E0ACE52F
:1000E000B1E001C01D92A639B207E1F710E0CDE5FD
:1000F000D0E004C02197FE010E94E304CC35D10773
:10010000C9F70E94DC010C94E9040C94000090E013
:10011000FC01EC55FF4F249180579F4FFC018491C7
:10012000882399F090E0880F991FFC01EA57FF4F50
:10013000A591B491FC01E458FF4F859194918FB73C
:10014000F894EC91E22BEC938FBF089590E0FC01C2
:10015000E859FF4F2491FC01EC55FF4F3491FC010D
:10016000E057FF4FE491EE23C9F0222339F023300A
:1001700001F1A8F4213019F1223029F1F0E0EE0F5D
:10018000FF1FE458FF4FA591B4918FB7F894EC91FD
:10019000611126C030953E233C938FBF08952730D0
:1001A000A9F02830C9F0243049F7809180008F7D74
:1001B00003C0809180008F7780938000DFCF84B56B
:1001C0008F7784BDDBCF84B58F7DFBCF8091B0006E
:1001D0008F778093B000D2CF8091B0008F7DF9CF20
:1001E0003E2BDACFCF93DF93C82FD0E080918301ED
:1001F000D81758F4ED2FF0E0E559FE4F60916E01ED
:1002000087850E94A600DF5FF1CFEC2FF0E0E55973
:10021000FE4F60916C018781DF91CF910C94A60015
:10022000CF93DF93C82FD0E080918201D81758F484
:10023000ED2FF0E0E559FE4F60916C0187810E943F
:10024000A600DF5FF1CFEC2FF0E0E559FE4F6091A3
:100250006E018785DF91CF910C94A6001F93CF93F9
:10026000DF93C82FD0E0C559DE4F60916B018F81BD
:100270000E94A60010E06A96809183011817A8F4E6
:10028000E12FF0E0888190E0012E02C095958795DE
:100290000A94E2F780FF07C0E559FE4F60916D01B7
:1002A00087850E94A6001F5FE7CFDF91CF911F9146
:1002B00008950F931F93CF93C82FE82FF0E0E559CF
:1002C000FE4F60916D0187850E94A60001E010E05D
:1002D00002C0000F111FCA95E2F7C0E080918201B1
:1002E000C81788F4EC2FF0E0E559FE4F828D90E0BE
:1002F00080239123892B29F060916B0187810E94D3
:10030000A600CF5FEBCFCF911F910F910895823060
:10031000910538F0880F991F880F991F059701974D
:10032000F1F708951F920F920FB60F9211242F9399
:100330003F938F939F93AF93BF9380916701909169
:100340006801A0916901B0916A013091660123E0D2
:10035000230F2D3758F50196A11DB11D209366017D
:100360008093670190936801A0936901B0936A013B
:100370008091620190916301A0916401B091650147
:100380000196A11DB11D8093620190936301A0931A
:100390006401B0936501BF91AF919F918F913F919F
:1003A0002F910F900FBE0F901F90189526E8230FE6
:1003B0000296A11DB11DD2CFCF93DF93CDB7DEB78B
:1003C0002F970FB6F894DEBF0FBECDBF789484B5DB
:1003D000826084BD84B5816084BD85B5826085BD41
:1003E00085B5816085BD80916E00816080936E00CF
:1003F00010928100809181008260809381008091C1
:100400008100816080938100809180008160809371
:1004100080008091B10084608093B1008091B00031
:1004200081608093B00080917A00846080937A002C
:1004300080917A00826080937A0080917A00816056
:1004400080937A0080917A00806880937A0010927D
:10045000C1008091000190910101A0910201898762
:100460009A87AB8787E0E3E0F1E08E010F5F1F4FD3
:10047000D80101900D928A95E1F710926F011092C8
:1004800070011092710183E08093820187E0809374
:10049000830181E080936B0110926D0110926C01D9
:1004A00080936E01F801AAE7B1E0CE010896219190
:1004B0002D93E817F907D9F78985809372018A850A
:1004C000809373018B8580937401F12C809182015C
:1004D000F81690F48F2D90E09C0125593E4F69014C
:1004E000F90187810E94870060916C01F601878184
:1004F0000E94A600F394EACFF12C80918301F816B4
:1005000050F090918201E5E8F1E080E09817A9F0C1
:1005100011928F5FFBCF8F2D90E09C0125593E4FAC
:100520006901F90187850E94870060916E01F601DB
:1005300087850E94A600F394E0CF80E00E9410011E
:1005400080E00E94F2008FE99FE0909392018093F7
:1005500091011092940110929301109295012FB77E
:10056000F8948091670190916801A0916901B09120
:100570006A012FBF40915E0150915F01609160015F
:10058000709161016C017D01C41AD50AE60AF70A6F
:10059000B701A601483E53406105710508F4D1C07A
:1005A00080935E0190935F01A0936001B09361011D
:1005B00080915C0190915D010196843691050CF06B
:1005C00044C090935D0180935C01C0905C01D09029
:1005D0005D010D2C000CEE08FF0880908201A82C14
:1005E000B12CC501880F991F880F991FFC01ED5C84
:1005F000FE4F4081518162817381C416D506E606A3
:10060000F70644F1F8018E2F801B881508F47BC093
:1006100031E0A31AB108ABE6B1E0980190E080E0C8
:10062000881508F08EC0F90141919F01E42FF0E098
:10063000E65FFE4F4081A816B90609F480C05A96BD
:100640004C935A9701961196EBCF10925D01109240
:100650005C01BBCF815D9E4FFC0180819181A281B5
:10066000B38121E030E040E050E0281B390B4A0B19
:100670005B0BDA01C901C816D906EA06FB0614F2BB
:10068000912CF7FE0CC055E25983F094E094D0947D
:10069000C094C11CD11CE11CF11C99249394892D98
:1006A00090E0F5013197FF87EE879501281B390B04
:1006B000220F331F220F331FA9014D5C5E4F5D8750
:1006C0004C871801280E391E981400F5EC85FD851D
:1006D0007290629052904290FD87EC87C701B601FC
:1006E000A30192010E948804F10121931F01A22F0E
:1006F000B0E0A30192010E94A704C61AD70AE80A33
:10070000F90A9394E1CF45E241937DCF8091710145
:1007100081117ECFE82FF0E0CE84DF84EC15FD055B
:100720000CF076CFE00FF11F9081911105C054E2DB
:10073000D52ED0828F5FEECF9A30E0F769CF406838
:100740007ECF80917001811197C03FB7F89480915E
:10075000620190916301A0916401B091650126B599
:10076000A89B05C02F3F19F00196A11DB11D3FBFE9
:10077000BA2FA92F982F8827820F911DA11DB11D77
:1007800042E0880F991FAA1FBB1F4A95D1F72091FD
:10079000950140918D0150918E0160918F01709172
:1007A00090016C017D01C41AD50AE60AF70A40914E
:1007B000930150919401211104C0409191015091F5
:1007C000920170E060E0C416D506E606F70668F10F
:1007D00080938D0190938E01A0938F01B09390012F
:1007E0008091840190916F01911129C0222391F091
:1007F00010929501809184018F5F80938401909184
:100800008301891710F010928401809184010E9465
:1008100059010BC00E9410018091930190919401A5
:10082000892B41F3F1E0F093950180E0C82E80E040
:10083000D82ECD2809F493CE0E94000090CE22231A
:1008400091F010929501809184018F5F80938401D3
:1008500090918201891710F0109284018091840197
:100860000E942E01E2CF0E94F200809193019091AC
:100870009401892B41F3D6CF80916F01F12C811126
:100880001AC080918301F81680F68F2D0E945901BD
:1008900080919101909192010E9487018F2D0E9479
:1008A00010018091930190919401009711F00E94A2
:1008B0008701F394E6CF80918201F81608F0B5CF56
:1008C0008F2D0E942E0180919101909192010E94A2
:1008D00087018F2D0E94F2008091930190919401E5
:1008E000009711F00E948701F394E5CFEBE6F1E069
:1008F00080ED97E097A386A311A610A612A6178AEB
:10090000118E12A213A214A215A2148215820895A8
:10091000052E97FB1EF400940E949F0457FD07D0FC
:100920000E94B20407FC03D04EF40C949F0450952F
:100930004095309521953F4F4F4F5F4F08959095CB
:100940008095709561957F4F8F4F9F4F08950E94BE
:10095000D404A59F900DB49F900DA49F800D911D70
:1009600011240895A1E21A2EAA1BBB1BFD010DC084
:10097000AA1FBB1FEE1FFF1FA217B307E407F5074F
:1009800020F0A21BB30BE40BF50B661F771F881F2B
:10099000991F1A9469F760957095809590959B01C1
:1009A000AC01BD01CF010895A29FB001B39FC0016A
:1009B000A39F700D811D1124911DB29F700D811D8B
:1009C0001124911D0895EE0FFF1F0590F491E02D65
:0609D0000994F894FFCF2A
:1009D6000A0B0C020304050607083F065B4F666D0B
:1009E6007D077F6F777C395E79713D76300E76387C
:1009F60000543F7367506D783E3E00766E5B004054
:100A0600806308010000000A00000064000000E89E
:100A160003000010270000A086010040420F00805E
:0C0A260096980000E1F50500CA9A3B001C
:00000001FF
