:100000000C945C000C9479000C9479000C947900A9
:100010000C9479000C9479000C9479000C9479007C
:100020000C9479000C9479000C9479000C9479006C
:100030000C9479000C9479000C9479000C9479005C
:100040000C940B010C9479000C9479000C947900B9
:100050000C9479000C9479000C9479000C9479003C
:100060000C9479000C947900000000080002010053
:100070000003040700000000000000000000000072
:10008000250028002B0000000000240027002A0083
:10009000040404040404040402020202020203032E
:1000A0000303030301020408102040800102040836
:1000B000102001020408102011241FBECFEFD8E049
:1000C000DEBFCDBF11E0A0E0B1E0E4E5F4E002C0A6
:1000D00005900D92AA30B107D9F721E0AAE0B1E06E
:1000E00001C01D92A331B207E1F70E9455010C94A3
:1000F00028020C94000090E0FC01EC55FF4F249185
:1001000080579F4FFC018491882399F090E0880FDD
:10011000991FFC01EA57FF4FA591B491FC01E458E7
:10012000FF4F859194918FB7F894EC91E22BEC936B
:100130008FBF089590E0FC01E859FF4F2491FC0126
:10014000EC55FF4F3491FC01E057FF4FE491EE2353
:10015000C9F0222339F0233001F1A8F4213019F13C
:10016000223029F1F0E0EE0FFF1FE458FF4FA59178
:10017000B4918FB7F894EC91611126C030953E236D
:100180003C938FBF08952730A9F02830C9F0243060
:1001900049F7809180008F7D03C0809180008F7728
:1001A00080938000DFCF84B58F7784BDDBCF84B5AB
:1001B0008F7DFBCF8091B0008F778093B000D2CF3E
:1001C0008091B0008F7DF9CF3E2BDACF3FB7F89406
:1001D00080910F0190911001A0911101B091120135
:1001E00026B5A89B05C02F3F19F00196A11DB11D92
:1001F0003FBFBA2FA92F982F8827BC01CD01620FCE
:10020000711D811D911D42E0660F771F881F991F88
:100210004A95D1F708951F920F920FB60F921124AD
:100220002F933F938F939F93AF93BF9380910B0135
:1002300090910C01A0910D01B0910E0130910A0135
:1002400023E0230F2D3758F50196A11DB11D2093F2
:100250000A0180930B0190930C01A0930D01B093C0
:100260000E0180910F0190911001A0911101B091A8
:1002700012010196A11DB11D80930F0190931001F1
:10028000A0931101B0931201BF91AF919F918F91F3
:100290003F912F910F900FBE0F901F90189526E859
:1002A000230F0296A11DB11DD2CF789484B5826030
:1002B00084BD84B5816084BD85B5826085BD85B50A
:1002C000816085BD80916E00816080936E00109288
:1002D0008100809181008260809381008091810003
:1002E0008160809381008091800081608093800094
:1002F0008091B10084608093B1008091B0008160F2
:100300008093B00080917A00846080937A0080911D
:100310007A00826080937A0080917A008160809375
:100320007A0080917A00806880937A001092C100F0
:100330008DE00E947B008CE00E947B008BE00E949D
:100340007B008AE00E947B0089E00E947B0088E0BD
:100350000E947B0087E00E947B0079E0E72E71E03D
:10036000F72EE0E0CE2EE0E0DE2E00E011E0F80116
:10037000C1918F016C2F61708DE00E949A00D0E0D6
:10038000BE017595679561708CE00E949A00BE0170
:10039000759567957595679561708BE00E949A00D9
:1003A000BE0123E0759567952A95E1F761708AE0B3
:1003B0000E949A00BE0134E0759567953A95E1F781
:1003C000617089E00E949A00BE0145E075956795CD
:1003D0004A95E1F7617088E00E949A0056E0D59551
:1003E000C7955A95E1F76C2F617087E00E949A00DB
:1003F0000E94E6002B013C0168EE862E63E0962EFB
:10040000A12CB12C0E94E600641975098609970990
:10041000683E734081059105A8F3F1E08F1A9108B9
:10042000A108B10828EE420E23E0521E611C711C87
:1004300081149104A104B10429F7E016F10609F032
:1004400096CFC114D10409F490CF0E9400008DCF43
:04045000F894FFCF4E
:0A04540060DAF266B6BEE0FEF600C4
:00000001FF
