:020000040000FA
:100000000C9462000C948A000C948A000C948A0070
:100010000C948A000C948A000C948A000C948A0038
:100020000C948A000C948A000C948A000C948A0028
:100030000C948A000C948A000C948A000C948A0018
:100040000C946E030C948A000C948A000C948A0021
:100050000C948A000C948A000C948A000C948A00F8
:100060000C948A000C948A000000000024002700F1
:100070002A0000000000250028002B0000000000DE
:1000800023002600290004040404040404040202DA
:100090000202020203030303030301020408102007
:1000A0004080010204081020010204081020000012
:1000B0000008000201000003040700000000000027
:1000C00000005B0511241FBECFEFD8E0DEBFCDBF1F
:1000D00011E0A0E0B1E0E2EBFBE002C005900D9280
:1000E000AA32B107D9F721E0AAE2B1E001C01D921E
:1000F000AA3BB207E1F710E0C2E6D0E004C02197C6
:10010000FE010E94D105C136D107C9F70E94B8038C
:100110000C94D7050C94000096E0899FD00111241F
:10012000AD5CBE4F90967C936E935F9791E09196F5
:100130009C939197E091A001F091A10190919F0172
:10014000992339F0309751F0811108C080914F0107
:100150000994309719F05C968C91FACF0895CF925C
:10016000DF92EF92FF920F931F9396E0899FF00129
:100170001124ED5CFE4F11A2278D30A121303105F5
:1001800051F178F02230310509F451C023303105A6
:1001900009F452C01F910F91FF90EF90DF90CF9024
:1001A00008956623B9F361E070E00E948C002FB7D8
:1001B000F89480912F0190913001A0913101B0917C
:1001C00032012FBF80938B0190938C01A0938D01FE
:1001D000B0938E01DFCF9FB7F894C0902F01D090DD
:1001E0003001E0903101F09032019FBF00918B010E
:1001F00010918C0120918D0130918E01C01AD10A8D
:10020000E20AF30A00919D0110919E0130E020E086
:100210000C151D052E053F0550F462E070E01F919E
:100220000F91FF90EF90DF90CF900C948C006111B4
:10023000B1CF63E070E0F3CF70E060E0F0CF8330E7
:1002400081F028F4813099F08230A9F00895873048
:10025000A9F08830C9F08430B1F4809180008F7D9E
:1002600003C0809180008F7780938000089584B5CB
:100270008F7784BD089584B58F7DFBCF8091B000CA
:100280008F778093B00008958091B0008F7DF9CF73
:10029000CF93DF93282F30E0F901E255FF4F84918F
:1002A000F901E656FF4FD491F901EA57FF4FC49187
:1002B000CC23A1F081110E941F01EC2FF0E0EE0F82
:1002C000FF1FE458FF4FA591B491EC91ED2381E01D
:1002D00090E009F480E0DF91CF91089580E090E014
:1002E000FACF1F93CF93DF93282F30E0F901E25527
:1002F000FF4F8491F901E656FF4FD491F901EA5777
:10030000FF4FC491CC23A9F0162F81110E941F0129
:10031000EC2FF0E0EE0FFF1FEE58FF4FA591B491C8
:100320008FB7F894EC91111108C0D095DE23DC93BF
:100330008FBFDF91CF911F910895DE2BF8CFCF9320
:10034000DF9390E0FC01E656FF4F24918A579F4FC0
:10035000FC0184918823C9F090E0880F991FFC016B
:10036000E859FF4FA591B491FC01EE58FF4FC5919C
:10037000D49161110DC09FB7F8948C912095822380
:100380008C938881282328839FBFDF91CF91089584
:10039000623051F49FB7F8943C91822F809583236B
:1003A0008C93E8812E2BEFCF8FB7F894EC912E2B06
:1003B0002C938FBFEACF862F642F0C949F01862F3A
:1003C000642F0C947101862F0C944801AF92BF9258
:1003D000CF92DF92EF92FF920F931F93CF93DF9311
:1003E0006C017B018B01040F151FEB015E01AE1840
:1003F000BF08C017D10759F06991D601ED91FC9162
:100400000190F081E02DC6010995892B79F7C5018E
:10041000DF91CF911F910F91FF90EF90DF90CF90E0
:10042000BF90AF900895089590E080E00895CF9335
:10043000DF93EC0160E08E810E94710161E08E81AA
:100440000E94710160E08E810E9471018BE891E051
:100450000197F1F7DF91CF910895CF92DF92EF925C
:10046000FF920F931F93CF93DF936C017C0187E082
:10047000E80EF11CD0E0C0E0062F10E0B8010C2E11
:1004800002C0759567950A94E2F76170F701819152
:100490007F010E9471012196C430D10579F7C60110
:1004A000DF91CF911F910F91FF90EF90DF90CF9050
:1004B0000C941702CF92DF92EF92FF920F931F934B
:1004C000CF93DF93EC01F62E642F8C810E94710193
:1004D0008D818F3F19F060E00E9471010F2D10E0B7
:1004E0008F8584FF25C06E0187E0C80ED11CF12CDA
:1004F000E12CB8010E2C02C0759567950A94E2F7BD
:100500006170F60181916F010E947101FFEFEF1A96
:10051000FF0A88E0E816F10461F7CE01DF91CF9180
:100520001F910F91FF90EF90DF90CF900C941702E6
:10053000B80184E0759567958A95E1F7CE010E9430
:100540002D026F2DCE01DF91CF911F910F91FF9062
:10055000EF90DF90CF900C942D02CF93DF938230F9
:1005600029F49091B10198609093B1018093B50105
:100570001092B60180E48093B70180E18093B801C6
:1005800080E58093B90161E08091A6010E949F01FE
:100590008091A7018F3F19F061E00E949F0161E007
:1005A0008091A8010E949F01C2EAD1E09E01225AD7
:1005B00031408091B10184FD0BC084E090E0219630
:1005C0002817390744F461E08E810E949F01EECF25
:1005D00088E090E0F4CF8BE39DE00197F1F760E0D5
:1005E0008091A6010E94710160E08091A8010E94A3
:1005F00071018091A7018F3F19F060E00E947101A5
:100600006091B10164FD45C063E082EA91E00E941F
:100610002D02CBE4D6E4CE010197F1F763E082EA44
:1006200091E00E942D022197F1F763E082EA91E0C8
:100630000E942D0283E592E00197F1F762E082EAE1
:1006400091E00E942D026091B101606240E082EA77
:1006500091E00E945A0284E08093B20140E06CE095
:1006600082EA91E00E945A0240E061E082EA91E071
:100670000E945A028BE39FE10197F1F782E0809399
:10068000B30140E066E082EA91E0DF91CF910C9403
:100690005A02606240E082EA91E00E945A028BE4D2
:1006A00096E40197F1F76091B101606240E082EA5F
:1006B00091E00E945A0283E592E00197F1F7609180
:1006C000B101606240E082EA91E00E945A02BBCF31
:1006D00041E00E945A0281E090E008951F920F923B
:1006E0000FB60F9211242F933F938F939F93AF9345
:1006F000BF9380912F0190913001A0913101B09171
:10070000320130912E0123E0230F2D3758F5019649
:10071000A11DB11D20932E0180932F0190933001D4
:10072000A0933101B093320180912A0190912B0165
:10073000A0912C01B0912D010196A11DB11D8093B6
:100740002A0190932B01A0932C01B0932D01BF910E
:10075000AF919F918F913F912F910F900FBE0F906E
:100760001F90189526E8230F0296A11DB11DD2CF28
:10077000789484B5826084BD84B5816084BD85B57C
:10078000826085BD85B5816085BD80916E00816088
:1007900080936E001092810080918100826080932E
:1007A0008100809181008160809381008091800030
:1007B0008160809380008091B10084608093B1005B
:1007C0008091B00081608093B00080917A00846055
:1007D00080937A0080917A00826080937A00809181
:1007E0007A00816080937A0080917A00806880939B
:1007F0007A001092C10082E00E94AD02412C512C7F
:10080000320143944BE3242E4FE1342E50E0C52EA9
:1008100050E0D52E51E050939F018FB7F89440914E
:100820002F015091300160913101709132018FBFE1
:1008300080918F0190919001A0919101B0919201CE
:10084000481B590B6A0B7B0B80919B0190919C017B
:10085000B0E0A0E084179507A607B70708F014C119
:10086000C0E080919901C81760F4E0919501F09182
:100870009601EC0FF11D62E080810E949F01CF5F25
:10088000F0CF912C80919A01981608F05FC0092D45
:1008900010E0E0919701F0919801E00FF11F61E005
:1008A00080810E949F01E0919701F0919801E00FF3
:1008B000F11F60E080810E947101D301C201092C07
:1008C00004C0880F991FAA1FBB1F0A94D2F75C01AE
:1008D0007C01E094F094812C809199018816F8F4C1
:1008E000C82DD0E0E0919501F0919601EC0FFD1F2D
:1008F00080810E9448012496CC0FDD1FCD5CDE4F25
:10090000892B41F4888199818A299B29998388833D
:100910008394E2CF888199818E219F21F7CFE09146
:100920009701F0919801E00FF11F61E080810E9432
:1009300071018091970190919801080F191F60E053
:10094000F80180810E949F0193949CCFC3E3D1E082
:10095000FE01878D90A1892B31F4148E8FEF9FEFCC
:10096000968F858F11A2369691E0EF36F90789F7B9
:1009700010E080919901181708F053C000E0E12EB3
:10098000F12CEE0CFF1CF701E55CFE4F7F0120917E
:100990009A01021708F043C0F70160817181002EAF
:1009A00002C0769567950A94E2F7129F9001112490
:1009B000200F311DE3E3F1E080E0458D568D2417D3
:1009C000350709F476C08F5F36968A30B1F760FF3D
:1009D00024C0E3E3F1E090E080E0448D411118C0D1
:1009E000E0919301F0919401E20FF31F408156E0F2
:1009F000589FF001599FF00D1124ED5CFE4F448F7C
:100A0000368F258F10A2178E61E00E94AF0005C0BF
:100A1000019636968A30910501F70F5FB8CF1F5FB8
:100A2000A8CF80E099A19111892F269691E0CF3629
:100A3000D907C1F79FB7F89440912F015091300129
:100A400060913101709132019FBF40938F015093AB
:100A5000900160939101709392018823A9F0809195
:100A60005401882389F0809152019091530101979C
:100A700059F4C0914F01C1110AC0C114D10409F445
:100A8000C9CE0E940000C6CE10929F01F6CF41E071
:100A90006C2F82EA91E00E945A02C33271F740E063
:100AA00061E082EA91E00E945A02C1010197F1F7E8
:100AB000E4CF6170AACF10923501109239011092E3
:100AC000380110923A0183E291E0909334018093CF
:100AD0003301EFE4F1E0108214821382158236961E
:100AE00081E0EB38F807B9F783E091E09093960145
:100AF0008093950180E091E0909398018093970115
:100B000084E08093990183E080939A0187E091E0EB
:100B100090939401809393018AE090E090939C01DC
:100B200080939B0184EF91E090939E0180939D01BF
:100B30001092A1011092A00110928F0110929001C9
:100B4000109291011092920110929F011092A501B2
:100B50001092A40187E191E09093A3018093A201F8
:100B60008CE08093A6018FEF8093A7018BE08093A8
:100B7000A8011092A90181E08093AA0189E08093E5
:100B8000AB018AE08093AC011092AD011092AE01EE
:100B90001092AF011092B0011092B10181E00C945B
:100BA000AD02EE0FFF1F0590F491E02D0994F8942B
:100BB000FFCF0807060504030231323334353637D8
:100BC00038392A3023000000006803E601140213BC
:0C0BD0000200000000DB01DF01E3010077
:107E0000112484B714BE81FFF0D085E080938100F7
:107E100082E08093C00088E18093C10086E0809377
:107E2000C20080E18093C4008EE0C9D0259A86E02C
:107E300020E33CEF91E0309385002093840096BBD3
:107E4000B09BFECF1D9AA8958150A9F7CC24DD24C4
:107E500088248394B5E0AB2EA1E19A2EF3E0BF2EE7
:107E6000A2D0813461F49FD0082FAFD0023811F036
:107E7000013811F484E001C083E08DD089C08234E0
:107E800011F484E103C0853419F485E0A6D080C0E4
:107E9000853579F488D0E82EFF2485D0082F10E0AE
:107EA000102F00270E291F29000F111F8ED06801E7
:107EB0006FC0863521F484E090D080E0DECF843638
:107EC00009F040C070D06FD0082F6DD080E0C81688
:107ED00080E7D80618F4F601B7BEE895C0E0D1E017
:107EE00062D089930C17E1F7F0E0CF16F0E7DF06D8
:107EF00018F0F601B7BEE89568D007B600FCFDCFD4
:107F0000A601A0E0B1E02C9130E011968C91119780
:107F100090E0982F8827822B932B1296FA010C0160
:107F200087BEE89511244E5F5F4FF1E0A038BF0790
:107F300051F7F601A7BEE89507B600FCFDCF97BE46
:107F4000E89526C08437B1F42ED02DD0F82E2BD052
:107F50003CD0F601EF2C8F010F5F1F4F84911BD097
:107F6000EA94F801C1F70894C11CD11CFA94CF0C13
:107F7000D11C0EC0853739F428D08EE10CD085E9AC
:107F80000AD08FE07ACF813511F488E018D01DD067
:107F900080E101D065CF982F8091C00085FFFCCF94
:107FA0009093C60008958091C00087FFFCCF809118
:107FB000C00084FD01C0A8958091C6000895E0E648
:107FC000F0E098E1908380830895EDDF803219F02E
:107FD00088E0F5DFFFCF84E1DECF1F93182FE3DFCA
:107FE0001150E9F7F2DF1F91089580E0E8DFEE27F6
:047FF000FF270994CA
:027FFE00040479
:00000001FF
