:100000000C945D000C9485000C9485000C94850084
:100010000C9485000C9485000C9485000C9485004C
:100020000C9485000C9485000C9485000C9485003C
:100030000C9485000C9485000C9485000C9485002C
:100040000C94FF010C9485000C946F020C944902EF
:100050000C9485000C9485000C9485000C9485000C
:100060000C9485000C94850000000008000201003B
:100070000003040700000000000000000000000072
:10008000250028002B0000000000240027002A0083
:10009000040404040404040402020202020203032E
:1000A0000303030301020408102040800102040836
:1000B0001020010204081020A10211241FBECFEF5E
:1000C000D8E0DEBFCDBF11E0A0E0B1E0E2E2FAE0AF
:1000D00002C005900D92AC36B107D9F722E0ACE62C
:1000E000B1E001C01D92AD33B207E1F710E0CDE5FC
:1000F000D0E004C02197FE010E940905CC35D1074C
:10010000C9F70E94DF020C940F050C94000090E0E8
:10011000FC01EC55FF4F249180579F4FFC018491C7
:10012000882399F090E0880F991FFC01EA57FF4F50
:10013000A591B491FC01E458FF4F859194918FB73C
:10014000F894EC91E22BEC938FBF089590E0FC01C2
:10015000E859FF4F2491FC01EC55FF4F3491FC010D
:10016000E057FF4FE491EE23C9F0222339F023300A
:1001700001F1A8F4213019F1223029F1F0E0EE0F5D
:10018000FF1FE458FF4FA591B4918FB7F894EC91FD
:10019000611126C030953E233C938FBF08952730D0
:1001A000A9F02830C9F0243049F7809180008F7D74
:1001B00003C0809180008F7780938000DFCF84B56B
:1001C0008F7784BDDBCF84B58F7DFBCF8091B0006E
:1001D0008F778093B000D2CF8091B0008F7DF9CF20
:1001E0003E2BDACFAF92BF92CF92DF92EF92FF9287
:1001F0000F931F93CF93DF936C017B018B01040F4F
:10020000151FEB015E01AE18BF08C017D10759F0EA
:100210006991D601ED91FC910190F081E02DC6012C
:100220000995892B79F7C501DF91CF911F910F9126
:10023000FF90EF90DF90CF90BF90AF900895FC01BA
:10024000538D448D252F30E0842F90E0821B930B3B
:10025000541710F0CF96089501970895FC01918DE1
:10026000828D981761F0A28DAE0FBF2FB11D5D96E4
:100270008C91928D9F5F9F73928F90E008958FEF86
:100280009FEF0895FC01918D828D981731F0828D3A
:10029000E80FF11D858D90E008958FEF9FEF089591
:1002A000FC01918D228D892F90E0805C9F4F821BF5
:1002B00091098F739927089585E791E00E94500175
:1002C00021E0892B09F420E0822F089580E090E05E
:1002D000892B29F00E945C0181110C940000089583
:1002E000FC01A48DA80FB92FB11DA35ABF4F2C91AB
:1002F000848D90E001968F739927848FA689B789A2
:100300002C93A089B1898C91837080648C93938D98
:10031000848D981306C00288F389E02D80818F7D3B
:1003200080830895EF92FF920F931F93CF93DF93F3
:10033000EC0181E0888F9B8D8C8D98131AC0E88921
:10034000F989808185FF15C09FB7F894EE89FF89F0
:100350006083E889F98980818370806480839FBF8E
:1003600081E090E0DF91CF911F910F91FF90EF908E
:100370000895F62E0B8D10E00F5F1F4F0F7311279E
:10038000E02E8C8D8E110CC00FB607FCFACFE889D9
:10039000F989808185FFF5CFCE010E947001F1CFF0
:1003A000EB8DEC0FFD2FF11DE35AFF4FF0829FB74D
:1003B000F8940B8FEA89FB8980818062CFCFCF933D
:1003C000DF93EC01888D8823B9F0AA89BB89E8897D
:1003D000F9898C9185FD03C0808186FD0DC00FB623
:1003E00007FCF7CF8C9185FFF2CF808185FFEDCFA1
:1003F000CE010E947001E9CFDF91CF9108951F9245
:100400000F920FB60F9211242F933F938F939F93C8
:10041000AF93BF938091710190917201A09173018C
:10042000B09174013091700123E0230F2D3758F5FE
:100430000196A11DB11D20937001809371019093CD
:100440007201A0937301B093740180916C0190913B
:100450006D01A0916E01B0916F010196A11DB11DBA
:1004600080936C0190936D01A0936E01B0936F0126
:10047000BF91AF919F918F913F912F910F900FBEA0
:100480000F901F90189526E8230F0296A11DB11D0D
:10049000D2CF1F920F920FB60F9211242F933F933A
:1004A0004F935F936F937F938F939F93AF93BF937C
:1004B000EF93FF9385E791E00E947001FF91EF9128
:1004C000BF91AF919F918F917F916F915F914F916C
:1004D0003F912F910F900FBE0F901F9018951F9274
:1004E0000F920FB60F9211242F938F939F93EF9338
:1004F000FF93E0918501F09186018081E0918B016D
:10050000F0918C0182FD1BC0908180918E018F5FE4
:100510008F7320918F01821741F0E0918E01F0E0FE
:10052000EB58FE4F958F80938E01FF91EF919F9135
:100530008F912F910F900FBE0F901F901895808173
:10054000F4CFE5E7F1E01382128288EE93E0A0E0B9
:10055000B0E084839583A683B7838DE591E0918392
:10056000808385EC90E09587848784EC90E0978782
:10057000868780EC90E0918B808B81EC90E0938B70
:10058000828B82EC90E0958B848B86EC90E0978B4D
:10059000868B118E128E138E148EE2E1F2E080EDC6
:1005A00097E097A386A311A610A612A6178A118E0C
:1005B00012A213A214A215A2148215820895CF9339
:1005C000DF93CDB7DEB760970FB6F894DEBF0FBEEE
:1005D000CDBF789484B5826084BD84B5816084BDCC
:1005E00085B5826085BD85B5816085BD80916E00D1
:1005F000816080936E001092810080918100826002
:10060000809381008091810081608093810080913E
:1006100080008160809380008091B100846080932D
:10062000B1008091B00081608093B00080917A0029
:10063000846080937A0080917A00826080937A004F
:1006400080917A00816080937A0080917A0080683E
:1006500080937A001092C10081E0898792E09A87A6
:1006600028E0E0E0F1E08E010F5F1F4FD80101901C
:100670000D922A95E1F7109216021092170210922D
:1006800018029093290298E090932A028093120214
:10069000109214021092130280931502F801A1E245
:1006A000B2E0CE01099621912D938E179F07D9F7BD
:1006B00081E08093190282E080931A02F12C8091EC
:1006C0002902F81698F48F2D90E09C012E5E3D4F84
:1006D0006901D90117968C910E94870060911302DD
:1006E000F60187810E94A600F394E9CFF12C809156
:1006F0002A02F81650F090912902ECE2F2E080E034
:100700009817B1F011928F5FFBCF8F2D90E09C0175
:100710002E5E3D4F6901D9011F968C910E94870082
:1007200060911502F60187850E94A600F394DFCF41
:10073000F12C80912902F81658F4EF2DF0E0EE5ECE
:10074000FD4F6091130287810E94A600F394F1CFC0
:1007500060911502809121020E94A600F12C8091E7
:100760002A02F81658F4EF2DF0E0EE5EFD4F60918E
:10077000150287850E94A600F394F1CF60911302C1
:10078000809119020E94A60088E097E090933902B8
:100790008093380210923B0210923A0210923C026F
:1007A000E0918501F091860182E08083E0918101F2
:1007B000F09182011082E0918301F09184018FEC2D
:1007C000808310928D01E0918901F0918A0186E089
:1007D0008083E0918701F09188018081806180832E
:1007E000E0918701F0918801808188608083E091A9
:1007F0008701F0918801808180688083E091870182
:10080000F091880180818F7D808325E2C22ED09077
:1008100029028D2C912C5401AA0CBB1CAA0CBB1CC8
:10082000F501EF5CFE4F80819181A281B381069733
:10083000A105B105BCF4F8018E2F801B8D1508F4BD
:1008400065C08CE292E0D8012A2F201B2D1508F0FC
:1008500078C0ED91F0E0E85FFE4F2081FC0121932C
:10086000CF01F2CFD501A35DBE4F8D919D910D902B
:10087000BC91A02D21E030E040E050E0281B390B76
:100880004A0B5B0BDA01C9010697A105B1059CF67D
:100890007F0118012CEFA4012403C001259F900DB6
:1008A0001124988B8F8785E0482E512C612C712C58
:1008B00041E351E04E155F0559F154E0E51AF108A6
:1008C000EF85F889EE0DFF1DEA0DFB1D80819181FA
:1008D000A281B3818B879C87AD87BE87C301B2019C
:1008E0002B853C854D855E850E94AE04D1012D93FC
:1008F0001D01A22FB0E02B853C854D855E850E94B1
:10090000CD04461A570A680A790AD2CFC19294CF09
:1009100080911802811195CFB1E08B1A9108E82FD0
:10092000F0E0E815F9050CF08CCFE00FF11F908195
:10093000911104C024E220838F5FF1CF9A30E0F759
:1009400080CF20E030E0232B09F461CF0E945C01CE
:10095000882309F45CCF0E94000059CF052E97FB35
:100960001EF400940E94C50457FD07D00E94D804CD
:1009700007FC03D04EF40C94C50450954095309577
:1009800021953F4F4F4F5F4F0895909580957095FB
:1009900061957F4F8F4F9F4F08950E94FA04A59F46
:1009A000900DB49F900DA49F800D911D112408956A
:1009B000A1E21A2EAA1BBB1BFD010DC0AA1FBB1F63
:1009C000EE1FFF1FA217B307E407F50720F0A21BD5
:1009D000B30BE40BF50B661F771F881F991F1A9442
:1009E00069F760957095809590959B01AC01BD016C
:1009F000CF010895A29FB001B39FC001A39F700DC6
:100A0000811D1124911DB29F700D811D1124911D16
:100A10000895EE0FFF1F0590F491E02D0994F894CE
:020A2000FFCF06
:100A2200060708090A0B0C0D3F065B4F666D7D0732
:100A32007F6F777C395E79713D76300E763800545F
:100A42003F7367506D783E3E00766E5B0040806378
:100A520008010000000A00000064000000E8030032
:100A62000010270000A086010040420F00809698E7
:100A72000000E1F50500CA9A3B000000009201F275
:0C0A8200001F01DF0150012E01420100A5
:00000001FF
