:100000000C945D000C9485000C9485000C94850084
:100010000C9485000C9485000C9485000C9485004C
:100020000C9485000C9485000C9485000C9485003C
:100030000C9485000C9485000C9485000C9485002C
:100040000C94CA020C9485000C943A030C9414038B
:100050000C9485000C9485000C9485000C9485000C
:100060000C9485000C94850000000008000201003B
:100070000003040700000000000000000000000072
:10008000250028002B0000000000240027002A0083
:10009000040404040404040402020202020203032E
:1000A0000303030301020408102040800102040836
:1000B00010200102040810206C0311241FBECFEF92
:1000C000D8E0DEBFCDBF11E0A0E0B1E0EAECFCE09B
:1000D00002C005900D92AC3EB107D9F722E0ACEE1C
:1000E000B1E001C01D92A73CB207E1F710E0CDE5F9
:1000F000D0E004C02197FE010E945D06CC35D107F7
:10010000C9F70E94AA030C9463060C94000090E0C7
:10011000FC01EC55FF4F249180579F4FFC018491C7
:10012000882399F090E0880F991FFC01EA57FF4F50
:10013000A591B491FC01E458FF4F859194918FB73C
:10014000F894EC91E22BEC938FBF089590E0FC01C2
:10015000E859FF4F2491FC01EC55FF4F3491FC010D
:10016000E057FF4FE491EE23C9F0222339F023300A
:1001700001F1A8F4213019F1223029F1F0E0EE0F5D
:10018000FF1FE458FF4FA591B4918FB7F894EC91FD
:10019000611126C030953E233C938FBF08952730D0
:1001A000A9F02830C9F0243049F7809180008F7D74
:1001B00003C0809180008F7780938000DFCF84B56B
:1001C0008F7784BDDBCF84B58F7DFBCF8091B0006E
:1001D0008F778093B000D2CF8091B0008F7DF9CF20
:1001E0003E2BDACFCF93DF93C82FD0E08091B402BB
:1001F000D81758F4ED2FF0E0E456FD4F60919F02C0
:1002000087850E94A600DF5FF1CFEC2FF0E0E45677
:10021000FD4F60919D028781DF91CF910C94A600E4
:10022000CF93DF93C82FD0E08091B302D81758F452
:10023000ED2FF0E0E456FD4F60919D0287810E9412
:10024000A600DF5FF1CFEC2FF0E0E456FD4F6091A8
:100250009F028785DF91CF910C94A6009091B30205
:10026000E6EBF2E080E0981719F011928F5FFBCF78
:1002700080E00E94100180E00C94F2001F93CF9365
:10028000DF93C82FD0E0C456DD4F60919C028F8170
:100290000E94A60010E06A968091B4021817A8F494
:1002A000E12FF0E0888190E0012E02C095958795BE
:1002B0000A94E2F780FF07C0E456FD4F60919E026A
:1002C00087850E94A6001F5FE7CFDF91CF911F9126
:1002D00008950F931F93CF93C82FE82FF0E0E456B3
:1002E000FD4F60919E0287850E94A60001E010E00C
:1002F00002C0000F111FCA95E2F7C0E08091B3025F
:10030000C81788F4EC2FF0E0E456FD4F828D90E0A2
:1003100080239123892B29F060919C0287810E9480
:10032000A600CF5FEBCFCF911F910F910895823040
:10033000910538F0880F991F880F991F059701972D
:10034000F1F70895AF92BF92CF92DF92EF92FF92B2
:100350000F931F93CF93DF936C017B018B01040FED
:10036000151FEB015E01AE18BF08C017D10759F089
:100370006991D601ED91FC910190F081E02DC601CB
:100380000995892B79F7C501DF91CF911F910F91C5
:10039000FF90EF90DF90CF90BF90AF900895FC0159
:1003A000538D448D252F30E0842F90E0821B930BDA
:1003B000541710F0CF96089501970895FC01918D80
:1003C000828D981761F0A28DAE0FBF2FB11D5D9683
:1003D0008C91928D9F5F9F73928F90E008958FEF25
:1003E0009FEF0895FC01918D828D981731F0828DD9
:1003F000E80FF11D858D90E008958FEF9FEF089530
:10040000FC01918D228D892F90E0805C9F4F821B93
:1004100091098F73992708958FEF91E00E94000250
:1004200021E0892B09F420E0822F089580E090E0FC
:10043000892B29F00E940C0281110C940000089570
:10044000FC01A48DA80FB92FB11DA35ABF4F2C9149
:10045000848D90E001968F739927848FA689B78940
:100460002C93A089B1898C91837080648C93938D37
:10047000848D981306C00288F389E02D80818F7DDA
:1004800080830895EF92FF920F931F93CF93DF9392
:10049000EC0181E0888F9B8D8C8D98131AC0E889C0
:1004A000F989808185FF15C09FB7F894EE89FF898F
:1004B0006083E889F98980818370806480839FBF2D
:1004C00081E090E0DF91CF911F910F91FF90EF902D
:1004D0000895F62E0B8D10E00F5F1F4F0F7311273D
:1004E000E02E8C8D8E110CC00FB607FCFACFE88978
:1004F000F989808185FFF5CFCE010E942002F1CFDE
:10050000EB8DEC0FFD2FF11DE35AFF4FF0829FB7EB
:10051000F8940B8FEA89FB8980818062CFCFCF93DB
:10052000DF93EC01888D8823B9F0AA89BB89E8891B
:10053000F9898C9185FD03C0808186FD0DC00FB6C1
:1005400007FCF7CF8C9185FFF2CF808185FFEDCF3F
:10055000CE010E942002E9CFDF91CF910895FC01E6
:1005600001900020E9F73197AF01481B590BBC01FE
:100570008FEF91E00C94A201CF93DF930E94AF0222
:10058000EC018AE191E00E94AF028C0F9D1FDF9188
:10059000CF9108951F920F920FB60F9211242F93AF
:1005A0003F938F939F93AF93BF938091FB01909163
:1005B000FC01A091FD01B091FE013091FA0123E010
:1005C000230F2D3758F50196A11DB11D2093FA0177
:1005D0008093FB019093FC01A093FD01B093FE0179
:1005E0008091F6019091F701A091F801B091F90185
:1005F0000196A11DB11D8093F6019093F701A09380
:10060000F801B093F901BF91AF919F918F913F9104
:100610002F910F900FBE0F901F90189526E8230F73
:100620000296A11DB11DD2CF1F920F920FB60F924D
:1006300011242F933F934F935F936F937F938F93E7
:100640009F93AF93BF93EF93FF938FEF91E00E943F
:100650002002FF91EF91BF91AF919F918F917F9178
:100660006F915F914F913F912F910F900FBE0F901F
:100670001F9018951F920F920FB60F9211242F936F
:100680008F939F93EF93FF93E0910F02F0911002ED
:100690008081E0911502F091160282FD1BC09081CD
:1006A000809118028F5F8F7320911902821741F099
:1006B000E0911802F0E0E150FE4F958F8093180210
:1006C000FF91EF919F918F912F910F900FBE0F90FF
:1006D0001F9018958081F4CFEFEFF1E01382128222
:1006E00088EE93E0A0E0B0E084839583A683B7838F
:1006F0008CE091E09183808385EC90E095878487FE
:1007000084EC90E09787868780EC90E0918B808BDB
:1007100081EC90E0938B828B82EC90E0958B848BC4
:1007200086EC90E0978B868B118E128E138E148E32
:10073000ECE9F2E080ED97E097A386A311A610A65E
:1007400012A6178A118E12A213A214A215A2148245
:1007500015820895CF93DF93CDB7DEB7A3970FB679
:10076000F894DEBF0FBECDBF789484B5826084BD9F
:1007700084B5816084BD85B5826085BD85B58160A5
:1007800085BD80916E00816080936E001092810023
:1007900080918100826080938100809181008160DE
:1007A000809381008091800081608093800080919F
:1007B000B10084608093B1008091B000816080932B
:1007C000B00080917A00846080937A0080917A00F2
:1007D000826080937A0080917A00816080937A00B1
:1007E00080917A00806880937A001092C10082E044
:1007F0008093EC018AA393E09BA398E0E0E0F1E012
:10080000DE01119601900D929A95E1F71092A002E7
:100810001092A1021092A2028093B30288E080930A
:10082000B40281E080939C0210929E0210929D027D
:1008300080939F02FE013196ABEAB2E0CE010996A9
:1008400021912D93E817F907D9F782E08093A3024D
:1008500083E08093A40210E08091B302181790F413
:10086000812F90E09C0124563D4F7901F901878149
:100870000E94870060919D02F70187810E94A60077
:100880001F5FEACF10E08091B402181790F4812F17
:1008900090E09C0124563D4F7901F90187850E9423
:1008A000870060919F02F70187850E94A6001F5F65
:1008B000EACF0E942E0188E097E09093C3028093D4
:1008C000C2021092C5021092C4021092C6028DE1BB
:1008D00091E00E94BC0284E391E00E94BC0281E7A7
:1008E00091E00E94BC02E0910F02F091100282E0C0
:1008F0008083E0910B02F0910C021082E0910D02D6
:10090000F0910E0280E1808310921702E0911302B1
:10091000F091140286E08083E0911102F0911202BE
:10092000808180618083E0911102F09112028081C8
:1009300088608083E0911102F091120280818068CA
:100940008083E0911102F091120280818F7D80837B
:10095000DD24DA949924939450E0E52E50E0F52EAE
:10096000CC24C394BB24BA9463E1A62E8091EE01FB
:1009700081110DC08FB7F8944091FB015091FC019B
:100980006091FD017091FE018FBFC092EE018FB7A3
:10099000F8944091FB015091FC016091FD01709130
:1009A000FE018FBF8FB7F8944091FB015091FC017D
:1009B0006091FD017091FE018FBF8090ED01F7E124
:1009C000F81508F406C1E82DF0E0E751FB4F0C9450
:1009D0005D0614051B051B051B051B051B051B05DB
:1009E0001B051B05B505B805B805B805B805B8055C
:1009F000B805B805B805E905E90518050105E605D6
:100A000018052091EC0130E04091B30290E080E0C5
:100A1000821793070CF0D5C0841720F4FC01E4562C
:100A2000FD4FD28E0196F4CF83E891E00E94BC0284
:100A30000E942E0127C08FEF880D292D01C0220FA3
:100A40008A95EAF74091EC0150E03091B30290E0D2
:100A500080E08417950744F4831720F4FC01E456E2
:100A6000FD4F228F0196F5CF81EA91E00E94AF02FF
:100A700060E6680D8FEF91E00E9442028AE191E00A
:100A80000E94AF028091ED018F5F883108F0A4C011
:100A90008093ED018091A1028111D5C03FB7F894F8
:100AA0008091F6019091F701A091F801B091F901C0
:100AB00026B5A89B05C02F3F19F00196A11DB11DB9
:100AC0003FBFBA2FA92F982F8827820F911DA11DF4
:100AD000B11D42E0880F991FAA1FBB1F4A95D1F78D
:100AE0002091C6024091BE025091BF026091C002A7
:100AF0007091C1022C013D01441A550A660A770A19
:100B00004091C4025091C502211104C04091C2021B
:100B10005091C30270E060E0441655066606770601
:100B200008F468C08093BE029093BF02A093C002F5
:100B3000B093C1028091B5029091A002911166C05C
:100B4000222309F44CC01092C6028091B5028F5F37
:100B50008093B5029091B402891710F01092B502FB
:100B60008091B5020E94690145C08AEA91E05ECF9A
:100B70000E942E0186EF880D082F10E09091B3029D
:100B8000891720F4F801E456FD4FD28E85EC91E0F0
:100B90000E94AF0219A266E2680D68A3CE0180969A
:100BA0000E94AF028CEC91E00E94BC020F5F1F4FCD
:100BB0008091EC018017110609F064CFA092ED013D
:100BC00061CF80ED91E00E94BC025CCF8DED91E0A1
:100BD0002DCFB092ED0156CF1092ED015BCF0E9468
:100BE00010018091C4029091C502892B09F4ADCF08
:100BF000C092C602E114F10409F4B8CE0E940C02BE
:100C0000882309F4B3CE0E940000B0CE222391F0D5
:100C10001092C6028091B5028F5F8093B5029091C9
:100C2000B302891710F01092B5028091B5020E94AC
:100C30003E01E0CF0E94F2008091C4029091C50273
:100C4000892B41F3D5CF8091A00210E081111AC009
:100C50008091B402181770F6812F0E94690180916B
:100C6000C2029091C3020E949701812F0E9410013D
:100C70008091C4029091C502009711F00E949701E3
:100C80001F5FE6CF8091B302181708F0B3CF812F12
:100C90000E943E018091C2029091C3020E9497017E
:100CA000812F0E94F2008091C4029091C5020097AA
:100CB00011F00E9497011F5FE5CFEE0FFF1F059017
:0A0CC000F491E02D0994F894FFCFA1
:100CCA00060708090A0B0C0D000000004202A201E7
:100CDA00CF018F020002DE01F2010D0A0053657690
:100CEA005365672074657374446973706C61792EF7
:100CFA00696E6F005468697320736B65746368204A
:100D0A0077696C6C206379636C65207468726F759F
:100D1A00676820616C6C207365676D656E74732CEF
:100D2A00207468656E20616C6C20646967697473ED
:100D3A000032303233204465616E20526561646945
:100D4A006E67000A4379636C696E67207468726F14
:100D5A007567682065616368207365676D656E7481
:100D6A00005365676D656E7420004379636C696E24
:100D7A0067207468726F75676820656163682064AC
:100D8A00696769740044696769742000206F6E009E
:100D9A00416C6C204C454473206F6E21004379638B
:0C0DAA006C652066696E69736865640002
:00000001FF
